{
  "contractName": "Voting",
  "abi": [
    {
      "inputs": [],
      "stateMutability": "nonpayable",
      "type": "constructor"
    },
    {
      "inputs": [
        {
          "internalType": "uint256",
          "name": "",
          "type": "uint256"
        }
      ],
      "name": "userList",
      "outputs": [
        {
          "internalType": "address",
          "name": "voterAddress",
          "type": "address"
        },
        {
          "internalType": "string",
          "name": "nickName",
          "type": "string"
        },
        {
          "internalType": "uint256",
          "name": "usedCoin",
          "type": "uint256"
        },
        {
          "internalType": "uint256",
          "name": "totalCoin",
          "type": "uint256"
        }
      ],
      "stateMutability": "view",
      "type": "function",
      "constant": true
    },
    {
      "inputs": [
        {
          "internalType": "string",
          "name": "",
          "type": "string"
        }
      ],
      "name": "votesReceived",
      "outputs": [
        {
          "internalType": "uint256",
          "name": "",
          "type": "uint256"
        }
      ],
      "stateMutability": "view",
      "type": "function",
      "constant": true
    },
    {
      "inputs": [],
      "name": "getCandidateNames",
      "outputs": [
        {
          "internalType": "string[]",
          "name": "",
          "type": "string[]"
        }
      ],
      "stateMutability": "view",
      "type": "function",
      "constant": true
    },
    {
      "inputs": [
        {
          "internalType": "address",
          "name": "token_addr",
          "type": "address"
        },
        {
          "internalType": "address",
          "name": "_addr",
          "type": "address"
        },
        {
          "internalType": "string",
          "name": "name",
          "type": "string"
        }
      ],
      "name": "registerCandidate",
      "outputs": [
        {
          "internalType": "bool",
          "name": "",
          "type": "bool"
        }
      ],
      "stateMutability": "nonpayable",
      "type": "function"
    },
    {
      "inputs": [
        {
          "internalType": "string",
          "name": "name",
          "type": "string"
        }
      ],
      "name": "getCandidateVotesByName",
      "outputs": [
        {
          "internalType": "uint256",
          "name": "",
          "type": "uint256"
        }
      ],
      "stateMutability": "view",
      "type": "function",
      "constant": true
    },
    {
      "inputs": [
        {
          "internalType": "address",
          "name": "token_addr",
          "type": "address"
        },
        {
          "internalType": "address",
          "name": "_from",
          "type": "address"
        },
        {
          "internalType": "string",
          "name": "candidate",
          "type": "string"
        },
        {
          "internalType": "uint256",
          "name": "votecoins",
          "type": "uint256"
        }
      ],
      "name": "voteForCandidate",
      "outputs": [
        {
          "internalType": "uint256",
          "name": "",
          "type": "uint256"
        }
      ],
      "stateMutability": "payable",
      "type": "function",
      "payable": true
    },
    {
      "inputs": [
        {
          "internalType": "string",
          "name": "candidate",
          "type": "string"
        }
      ],
      "name": "totalVotesFor",
      "outputs": [
        {
          "internalType": "uint256",
          "name": "",
          "type": "uint256"
        }
      ],
      "stateMutability": "view",
      "type": "function",
      "constant": true
    },
    {
      "inputs": [
        {
          "internalType": "address",
          "name": "_addr",
          "type": "address"
        },
        {
          "internalType": "string",
          "name": "name",
          "type": "string"
        }
      ],
      "name": "isExistedCandidate",
      "outputs": [
        {
          "internalType": "bool",
          "name": "",
          "type": "bool"
        }
      ],
      "stateMutability": "view",
      "type": "function",
      "constant": true
    },
    {
      "inputs": [
        {
          "internalType": "string",
          "name": "name",
          "type": "string"
        }
      ],
      "name": "ValidCandidate",
      "outputs": [
        {
          "internalType": "bool",
          "name": "",
          "type": "bool"
        }
      ],
      "stateMutability": "view",
      "type": "function",
      "constant": true
    },
    {
      "inputs": [
        {
          "internalType": "string",
          "name": "candidate",
          "type": "string"
        }
      ],
      "name": "getVotes",
      "outputs": [
        {
          "internalType": "uint256",
          "name": "",
          "type": "uint256"
        }
      ],
      "stateMutability": "view",
      "type": "function",
      "constant": true
    },
    {
      "inputs": [
        {
          "internalType": "address",
          "name": "token_addr",
          "type": "address"
        },
        {
          "internalType": "address",
          "name": "_addr",
          "type": "address"
        }
      ],
      "name": "getBalanceInFSCoin",
      "outputs": [
        {
          "internalType": "uint256",
          "name": "",
          "type": "uint256"
        }
      ],
      "stateMutability": "view",
      "type": "function",
      "constant": true
    },
    {
      "inputs": [
        {
          "internalType": "address",
          "name": "_addr",
          "type": "address"
        }
      ],
      "name": "getUsedFSCoin",
      "outputs": [
        {
          "internalType": "uint256",
          "name": "",
          "type": "uint256"
        }
      ],
      "stateMutability": "view",
      "type": "function",
      "constant": true
    }
  ],
  "bytecode": "0x608060405234801561001057600080fd5b506119a7806100206000396000f3fe6080604052600436106100a75760003560e01c80638cf5a6cc116100645780638cf5a6cc146101fb5780638d4b44d9146102385780639728f519146102755780639f4216e8146102b2578063b9de4d63146102f2578063e8aa17f11461032f576100a7565b80631a521136146100ac57806327423f4a146100e95780634a3bf37714610119578063669dac491461015657806372b9d61614610193578063805265e5146101be575b600080fd5b3480156100b857600080fd5b506100d360048036038101906100ce91906110ee565b61036c565b6040516100e091906115fd565b60405180910390f35b61010360048036038101906100fe9190611191565b610404565b60405161011091906115fd565b60405180910390f35b34801561012557600080fd5b50610140600480360381019061013b9190611289565b6106ac565b60405161014d91906115fd565b60405180910390f35b34801561016257600080fd5b5061017d6004803603810190610178919061112a565b6106e6565b60405161018a91906115e2565b60405180910390f35b34801561019f57600080fd5b506101a86108a7565b6040516101b591906115c0565b60405180910390f35b3480156101ca57600080fd5b506101e560048036038101906101e09190611289565b610a68565b6040516101f291906115fd565b60405180910390f35b34801561020757600080fd5b50610222600480360381019061021d91906110c5565b610a90565b60405161022f91906115fd565b60405180910390f35b34801561024457600080fd5b5061025f600480360381019061025a9190611289565b610bb6565b60405161026c91906115fd565b60405180910390f35b34801561028157600080fd5b5061029c60048036038101906102979190611289565b610be4565b6040516102a991906115fd565b60405180910390f35b3480156102be57600080fd5b506102d960048036038101906102d491906112ca565b610c1e565b6040516102e99493929190611574565b60405180910390f35b3480156102fe57600080fd5b5061031960048036038101906103149190611289565b610d06565b60405161032691906115e2565b60405180910390f35b34801561033b57600080fd5b506103566004803603810190610351919061120c565b610de1565b60405161036391906115e2565b60405180910390f35b6000808390508073ffffffffffffffffffffffffffffffffffffffff166370a08231846040518263ffffffff1660e01b81526004016103ab9190611522565b60206040518083038186803b1580156103c357600080fd5b505afa1580156103d7573d6000803e3d6000fd5b505050506040513d601f19601f820116820180604052508101906103fb91906112f3565b91505092915050565b600061040f83610d06565b61041857600080fd5b81610423868661036c565b101561042e57600080fd5b8160018460405161043f91906114f4565b9081526020016040518091039020600082825461045c91906116ff565b9250508190555060005b6000805490508110156105ee578473ffffffffffffffffffffffffffffffffffffffff16600082815481106104c4577f4e487b7100000000000000000000000000000000000000000000000000000000600052603260045260246000fd5b906000526020600020906004020160000160009054906101000a900473ffffffffffffffffffffffffffffffffffffffff1673ffffffffffffffffffffffffffffffffffffffff1614156105db57826000828154811061054d577f4e487b7100000000000000000000000000000000000000000000000000000000600052603260045260246000fd5b9060005260206000209060040201600201600082825461056d91906116ff565b9250508190555082600082815481106105af577f4e487b7100000000000000000000000000000000000000000000000000000000600052603260045260246000fd5b906000526020600020906004020160030160008282546105cf9190611755565b925050819055506105ee565b80806105e690611845565b915050610466565b5060008590508073ffffffffffffffffffffffffffffffffffffffff166323b872dd8633866040518463ffffffff1660e01b81526004016106319392919061153d565b60206040518083038186803b15801561064957600080fd5b505afa15801561065d573d6000803e3d6000fd5b505050506040513d601f19601f820116820180604052508101906106819190611260565b5060018460405161069291906114f4565b908152602001604051809103902054915050949350505050565b60006106b782610d06565b6106c057600080fd5b6001826040516106d091906114f4565b9081526020016040518091039020549050919050565b60006106f28383610de1565b1561070057600090506108a0565b600084905060008173ffffffffffffffffffffffffffffffffffffffff166370a08231866040518263ffffffff1660e01b81526004016107409190611522565b60206040518083038186803b15801561075857600080fd5b505afa15801561076c573d6000803e3d6000fd5b505050506040513d601f19601f8201168201806040525081019061079091906112f3565b9050600060405180608001604052808773ffffffffffffffffffffffffffffffffffffffff16815260200186815260200160008152602001838152509050600081908060018154018082558091505060019003906000526020600020906004020160009091909190915060008201518160000160006101000a81548173ffffffffffffffffffffffffffffffffffffffff021916908373ffffffffffffffffffffffffffffffffffffffff160217905550602082015181600101908051906020019061085d929190610f66565b5060408201518160020155606082015181600301555050600060018660405161088691906114f4565b908152602001604051809103902081905550600193505050505b9392505050565b60606000808054905067ffffffffffffffff8111156108ef577f4e487b7100000000000000000000000000000000000000000000000000000000600052604160045260246000fd5b60405190808252806020026020018201604052801561092257816020015b606081526020019060019003908161090d5790505b50905060005b600080549050811015610a60576000818154811061096f577f4e487b7100000000000000000000000000000000000000000000000000000000600052603260045260246000fd5b9060005260206000209060040201600101805461098b90611813565b80601f01602080910402602001604051908101604052809291908181526020018280546109b790611813565b8015610a045780601f106109d957610100808354040283529160200191610a04565b820191906000526020600020905b8154815290600101906020018083116109e757829003601f168201915b5050505050828281518110610a42577f4e487b7100000000000000000000000000000000000000000000000000000000600052603260045260246000fd5b60200260200101819052508080610a5890611845565b915050610928565b508091505090565b6000600182604051610a7a91906114f4565b9081526020016040518091039020549050919050565b600080600090505b600080549050811015610bab578273ffffffffffffffffffffffffffffffffffffffff1660008281548110610af6577f4e487b7100000000000000000000000000000000000000000000000000000000600052603260045260246000fd5b906000526020600020906004020160000160009054906101000a900473ffffffffffffffffffffffffffffffffffffffff1673ffffffffffffffffffffffffffffffffffffffff161415610b985760008181548110610b7e577f4e487b7100000000000000000000000000000000000000000000000000000000600052603260045260246000fd5b906000526020600020906004020160020154915050610bb1565b8080610ba390611845565b915050610a98565b50600090505b919050565b6001818051602081018201805184825260208301602085012081835280955050505050506000915090505481565b6000610bef82610d06565b610bf857600080fd5b600182604051610c0891906114f4565b9081526020016040518091039020549050919050565b60008181548110610c2e57600080fd5b90600052602060002090600402016000915090508060000160009054906101000a900473ffffffffffffffffffffffffffffffffffffffff1690806001018054610c7790611813565b80601f0160208091040260200160405190810160405280929190818152602001828054610ca390611813565b8015610cf05780601f10610cc557610100808354040283529160200191610cf0565b820191906000526020600020905b815481529060010190602001808311610cd357829003601f168201915b5050505050908060020154908060030154905084565b600080600090505b600080549050811015610dd65782604051602001610d2c91906114f4565b6040516020818303038152906040528051906020012060008281548110610d7c577f4e487b7100000000000000000000000000000000000000000000000000000000600052603260045260246000fd5b9060005260206000209060040201600101604051602001610d9d919061150b565b604051602081830303815290604052805190602001201415610dc3576001915050610ddc565b8080610dce90611845565b915050610d0e565b50600090505b919050565b600080600090505b600080549050811015610f5a5782604051602001610e0791906114f4565b6040516020818303038152906040528051906020012060008281548110610e57577f4e487b7100000000000000000000000000000000000000000000000000000000600052603260045260246000fd5b9060005260206000209060040201600101604051602001610e78919061150b565b604051602081830303815290604052805190602001201415610e9e576001915050610f60565b60008181548110610ed8577f4e487b7100000000000000000000000000000000000000000000000000000000600052603260045260246000fd5b906000526020600020906004020160000160009054906101000a900473ffffffffffffffffffffffffffffffffffffffff1673ffffffffffffffffffffffffffffffffffffffff168473ffffffffffffffffffffffffffffffffffffffff161415610f47576001915050610f60565b8080610f5290611845565b915050610de9565b50600090505b92915050565b828054610f7290611813565b90600052602060002090601f016020900481019282610f945760008555610fdb565b82601f10610fad57805160ff1916838001178555610fdb565b82800160010185558215610fdb579182015b82811115610fda578251825591602001919060010190610fbf565b5b509050610fe89190610fec565b5090565b5b80821115611005576000816000905550600101610fed565b5090565b600061101c61101784611649565b611618565b90508281526020810184848401111561103457600080fd5b61103f8482856117d1565b509392505050565b6000813590506110568161192c565b92915050565b60008151905061106b81611943565b92915050565b600082601f83011261108257600080fd5b8135611092848260208601611009565b91505092915050565b6000813590506110aa8161195a565b92915050565b6000815190506110bf8161195a565b92915050565b6000602082840312156110d757600080fd5b60006110e584828501611047565b91505092915050565b6000806040838503121561110157600080fd5b600061110f85828601611047565b925050602061112085828601611047565b9150509250929050565b60008060006060848603121561113f57600080fd5b600061114d86828701611047565b935050602061115e86828701611047565b925050604084013567ffffffffffffffff81111561117b57600080fd5b61118786828701611071565b9150509250925092565b600080600080608085870312156111a757600080fd5b60006111b587828801611047565b94505060206111c687828801611047565b935050604085013567ffffffffffffffff8111156111e357600080fd5b6111ef87828801611071565b92505060606112008782880161109b565b91505092959194509250565b6000806040838503121561121f57600080fd5b600061122d85828601611047565b925050602083013567ffffffffffffffff81111561124a57600080fd5b61125685828601611071565b9150509250929050565b60006020828403121561127257600080fd5b60006112808482850161105c565b91505092915050565b60006020828403121561129b57600080fd5b600082013567ffffffffffffffff8111156112b557600080fd5b6112c184828501611071565b91505092915050565b6000602082840312156112dc57600080fd5b60006112ea8482850161109b565b91505092915050565b60006020828403121561130557600080fd5b6000611313848285016110b0565b91505092915050565b600061132883836113c3565b905092915050565b61133981611789565b82525050565b600061134a8261169e565b61135481856116c1565b93508360208202850161136685611679565b8060005b858110156113a25784840389528151611383858261131c565b945061138e836116b4565b925060208a0199505060018101905061136a565b50829750879550505050505092915050565b6113bd8161179b565b82525050565b60006113ce826116a9565b6113d881856116d2565b93506113e88185602086016117e0565b6113f18161191b565b840191505092915050565b6000611407826116a9565b61141181856116e3565b93506114218185602086016117e0565b61142a8161191b565b840191505092915050565b6000611440826116a9565b61144a81856116f4565b935061145a8185602086016117e0565b80840191505092915050565b6000815461147381611813565b61147d81866116f4565b9450600182166000811461149857600181146114a9576114dc565b60ff198316865281860193506114dc565b6114b285611689565b60005b838110156114d4578154818901526001820191506020810190506114b5565b838801955050505b50505092915050565b6114ee816117c7565b82525050565b60006115008284611435565b915081905092915050565b60006115178284611466565b915081905092915050565b60006020820190506115376000830184611330565b92915050565b60006060820190506115526000830186611330565b61155f6020830185611330565b61156c60408301846114e5565b949350505050565b60006080820190506115896000830187611330565b818103602083015261159b81866113fc565b90506115aa60408301856114e5565b6115b760608301846114e5565b95945050505050565b600060208201905081810360008301526115da818461133f565b905092915050565b60006020820190506115f760008301846113b4565b92915050565b600060208201905061161260008301846114e5565b92915050565b6000604051905081810181811067ffffffffffffffff8211171561163f5761163e6118ec565b5b8060405250919050565b600067ffffffffffffffff821115611664576116636118ec565b5b601f19601f8301169050602081019050919050565b6000819050602082019050919050565b60008190508160005260206000209050919050565b600081519050919050565b600081519050919050565b6000602082019050919050565b600082825260208201905092915050565b600082825260208201905092915050565b600082825260208201905092915050565b600081905092915050565b600061170a826117c7565b9150611715836117c7565b9250827fffffffffffffffffffffffffffffffffffffffffffffffffffffffffffffffff0382111561174a5761174961188e565b5b828201905092915050565b6000611760826117c7565b915061176b836117c7565b92508282101561177e5761177d61188e565b5b828203905092915050565b6000611794826117a7565b9050919050565b60008115159050919050565b600073ffffffffffffffffffffffffffffffffffffffff82169050919050565b6000819050919050565b82818337600083830152505050565b60005b838110156117fe5780820151818401526020810190506117e3565b8381111561180d576000848401525b50505050565b6000600282049050600182168061182b57607f821691505b6020821081141561183f5761183e6118bd565b5b50919050565b6000611850826117c7565b91507fffffffffffffffffffffffffffffffffffffffffffffffffffffffffffffffff8214156118835761188261188e565b5b600182019050919050565b7f4e487b7100000000000000000000000000000000000000000000000000000000600052601160045260246000fd5b7f4e487b7100000000000000000000000000000000000000000000000000000000600052602260045260246000fd5b7f4e487b7100000000000000000000000000000000000000000000000000000000600052604160045260246000fd5b6000601f19601f8301169050919050565b61193581611789565b811461194057600080fd5b50565b61194c8161179b565b811461195757600080fd5b50565b611963816117c7565b811461196e57600080fd5b5056fea26469706673582212202d1aa91b394504504518ee69bbf5d51b55c368275c68edc51247738168e4fa8d64736f6c63430008000033",
  "immutableReferences": {},
  "source": "pragma solidity ^0.8.0;\npragma experimental ABIEncoderV2;\n\n\nimport \"./FreeSpeechCoin.sol\";\n\ninterface FreeSpeechCoinInterface{\n    function balanceOf(address _addr) external view returns(uint256);\n    function transferFrom(address _from, address _to, uint256 amount) external view returns(bool);\n}\n\ncontract Voting{\n    struct User{\n        address voterAddress;\n        string nickName;\n        uint256 usedCoin;\n        uint256 totalCoin;\n        \n    }\n    // string[] public CandidateNameList;\n    User[] public userList;\n    // FreeSpeechCoin fscoin_instance = FreeSpeechCoin(msg.sender);\n\n    mapping(string => uint256) public votesReceived;\n\n    constructor() {\n        // uint256 user_coins = fscoin_instance.balanceOf(msg.sender);\n        // uint256 user_coins = FreeSpeechCoin.balanceOf(msg.sender);\n        // uint256 user_coins = 0;\n        // User memory user = User(msg.sender, 'Matrix', 0, user_coins);\n        // userList.push(user);\n        // votesReceived['Matrix'] = 0; \n    }\n\n    function getCandidateNames() view public returns(string[] memory){\n        // uint n = 1;\n        string[] memory nameList = new string[](userList.length);\n        for(uint i = 0; i < userList.length; i++){\n            nameList[i] = userList[i].nickName;\n        }\n        return nameList;\n    }\n\n    function registerCandidate(address token_addr, address _addr, string memory name) public returns(bool){\n        if(isExistedCandidate(_addr, name)){\n            return false;\n        }\n        FreeSpeechCoinInterface FSCI = FreeSpeechCoinInterface(token_addr);\n        uint256 user_coins = FSCI.balanceOf(_addr);\n        // uint256 user_coins = 0;\n        User memory user = User(_addr, name, 0, user_coins);\n        userList.push(user);\n        votesReceived[name] = 0;\n        return true;\n    }\n\n    function getCandidateVotesByName(string memory name) view public returns(uint){\n        require(ValidCandidate(name));\n        return votesReceived[name];\n\n    }\n\n    function voteForCandidate(address token_addr, address _from, string memory candidate, uint256 votecoins) public payable returns(uint){\n        require((ValidCandidate(candidate)));\n        require(getBalanceInFSCoin(token_addr, _from) >= votecoins);\n        votesReceived[candidate] += votecoins;\n        for(uint256 i = 0; i < userList.length; i++){\n            if (userList[i].voterAddress == _from){\n                userList[i].usedCoin += votecoins;\n                userList[i].totalCoin -= votecoins;\n                break;\n            }\n        }\n        FreeSpeechCoinInterface FSCI = FreeSpeechCoinInterface(token_addr);\n        FSCI.transferFrom(_from, msg.sender, votecoins);\n        return votesReceived[candidate];\n    }\n\n    function totalVotesFor(string memory candidate) view public returns(uint){\n        require(ValidCandidate(candidate));\n        return votesReceived[candidate];\n    }\n\n    function isExistedCandidate(address _addr, string memory name) view public returns(bool){\n        for(uint256 i = 0; i < userList.length; i++){\n            if(keccak256(abi.encodePacked(userList[i].nickName)) == keccak256(abi.encodePacked(name))){\n                return true;\n            }\n            if (_addr == userList[i].voterAddress){\n                return true;\n            }\n        }\n        return false;\n    }\n\n    function ValidCandidate(string memory name) view public returns(bool){\n        for(uint256 i = 0; i < userList.length; i++){\n            if(keccak256(abi.encodePacked(userList[i].nickName)) == keccak256(abi.encodePacked(name))){\n                return true;\n            }\n        }\n        return false;\n    }\n\n    function getVotes(string memory candidate) view public returns(uint){\n        return votesReceived[candidate];\n    }\n\n    function getBalanceInFSCoin(address token_addr, address _addr) view public returns(uint256){\n        FreeSpeechCoinInterface FSCI = FreeSpeechCoinInterface(token_addr);\n        return FSCI.balanceOf(_addr);\n    }\n\n    function getUsedFSCoin(address _addr) view public returns(uint256){\n        for(uint256 i = 0; i < userList.length; i++){\n            if(userList[i].voterAddress == _addr){\n                return userList[i].usedCoin;\n            }\n        }\n        return 0;\n    }\n\n    \n}",
  "sourcePath": "/home/haoran/data/projects/learning_codes/dapp/truffle_voting_1/contracts/Voting.sol",
  "compiler": {
    "name": "solc",
    "version": "0.8.0+commit.c7dfd78e.Emscripten.clang"
  },
  "schemaVersion": "3.4.2",
  "updatedAt": "2021-08-20T13:47:12.033Z",
  "networkType": "ethereum",
  "devdoc": {
    "kind": "dev",
    "methods": {},
    "version": 1
  },
  "userdoc": {
    "kind": "user",
    "methods": {},
    "version": 1
  }
}